:1000000008308A008A280000FF00030E8301A10047
:100010000A08A0008A010408A2007708A300780853
:10002000A4007908A5007A08A600831383120B1E8A
:100030001B288B1832288C308400801E21288C1AB3
:100040003528220884002308F7002408F800250832
:10005000F9002608FA0020088A00210E8300FF0E0E
:100060007F0E09008A110A12BF288A110A125F2E18
:100070000A108A100A11820728340C34013406341D
:1000800020173A10CD37F43772104322201D2E006E
:10009000D632EC37E334E430E41EA5192E18E6120C
:1000A000631000000C102E1DA0216F3774396F36BD
:1000B00020326510D632EC37E334E4306410E43299
:1000C000A03A6E10CD37F4377210E432A0214410FC
:1000D000CD32E4346137F43220266110D021201D66
:1000E0002E058A0600002E1DA024EE33F232F332D4
:1000F00020366110D632EC37E334E4306410C43279
:10010000F33261326110E4322018A030A0183018A8
:10011000A03C2028F232F3346F3765104537F432B3
:1001200072103A170A050D00C430F4372029E53162
:10013000693B69326F103D10A5192E1866058A06B5
:100140000000D632EC37E334E43064103D10A519DA
:100150002E186610A01263058A0600014937673918
:10016000E5396510EC30202B6536EF3169326132AC
:1001700020326536A0266F3A6F39A01E2000B20AE1
:100180008B108A110A1221285808DF005C08DF064C
:10019000DF1FCF2803110310D81B031402295808AE
:1001A000DF005B08E0005708E0020319DD28DF1FCD
:1001B00002290308013A830002295C08E00058087C
:1001C000E0020319E928DF1F02290308013A83002E
:1001D00002295D08E0005908E0020319F528DF1F35
:1001E00002290308013A830002295E08E0005A0848
:1001F000E00203190129DF1F02290308013A8300E5
:10020000022903100800640803197329EC00680828
:1002100003197329EC07031814297F30EC02031C1F
:1002200073290319732918298130EC0703187329DE
:100230006C08F700F801F901FA016508F000F01701
:100240006608EF006708EE001830EC00ED016E1C48
:1002500041296B08FA07031C3329F90A031D3329C6
:10026000F80A0319ED176A08F907031C3A29F80A76
:100270000319ED176908E600E6176608F807031882
:10028000ED17ED0DF80CF90CFA0CF00CEF0CEE0C70
:100290000310EC0B26290130F70703187329F81B0C
:1002A0005829F00DFA0DF90DF80DF703031973290C
:1002B000F01F6929FA0A031D6929F90A031D692932
:1002C000F80A031D6929F80CF90CFA0CF70A03194E
:1002D00073296508ED006908ED06ED1F7129F8170F
:1002E0007729F8137729F701F801F901FA010800D5
:1002F0008316081088100811831288100F30831697
:100300000805F03888008312081500000814000062
:100310000808F700080E0F39F8007808EC000810FC
:100320000000081400000808F700080E0F39F80054
:100330007808EB0008100F30831608058800831238
:100340006C0EF700F030F70577086B04F8007808BA
:10035000EB00EB1B7E29691C8810691888140000CB
:100360000811000008106A0EEB000F30EB056B0857
:10037000EC006C0EF039F7000F30080577048800A8
:1003800000000814C32908106A080F39EB006B0835
:10039000EC006C0EF039F7000F3008057704880088
:1003A00000000814D32908100800660BD829DB299F
:1003B0004030E700DC29E70101306502E707670804
:1003C0008038E800E9016808EA0078210800653013
:1003D0008400831300080319FB290130F800F7019A
:1003E000F70BF029F80BEF294A30F700F70BF62945
:1003F000F929800BED2908006408073A03190A2A35
:100400000B3A03190F2A063A0319172A023A03195D
:100410001D2A222A0130E500E600D521272AE9011C
:100420000130EA0078210230E500E721272A013077
:10043000E5000230E600D521272AE9011030EA0064
:100440007821272A0130E9006408EA0078210800B1
:100450000B08D7008B13831603178C170C1400009E
:10046000000083120C087F3903196F2A0313D80088
:1004700003170D080313D90003170F080313DA003D
:100480005808E400FC21590803178D0003135A088B
:1004900003178F0083168C170C14000000008312C2
:1004A0000C0D0E0D7F3903196F2A0313D8000317A3
:1004B0000D080313D90003170F080313DA005808B7
:1004C000E400FC21590803178D0003135A08031791
:1004D0008F008D0A03198F0A03132B2A03170313A6
:1004E000D71B8B1708008318782A6C30840083137D
:1004F000F701F801F901FA01EC01ED01EE01EF015C
:100500006B086A04690468040319B62A2030F000F5
:100510000310E40DE50DE60DE70DEC0DED0DEE0D10
:10052000EF0D6B086F02031D9F2A6A086E02031D00
:100530009F2A69086D02031D9F2A68086C02031C2C
:10054000B02A6808EC026908031C690FED026A080A
:10055000031C6A0FEE026B08031C6B0FEF020314FF
:10056000F70DF80DF90DFA0DF00B882A6C088000D4
:10057000840A6D088000840A6E088000840A6F086F
:10058000800008000408DC005B08DE000319E12A93
:100590005A08E7005908E6005808E5005708E40043
:1005A000EB01EA012030E9008230E80003217A08FB
:1005B000DA007908D9007808D8007708D700DE0B70
:1005C000C82A5A08E7005908E6005808E500570805
:1005D000E4006408B63CE400FA016508E800E517A9
:1005E0000310E50CE60CE70CFA0CF90CF80CF70C10
:1005F000E40BF02AE81F072BF709F809F909FA09B3
:10060000F70A0319F80A0319F90A0319FA0A7A080A
:10061000DA007908D9007808D8007708D700DA1FFF
:100620001E2BDC03DC16D709D809D909DA09D70A49
:100630000319D80A0319D90A0319DA0A3B30E3006F
:100640009A30E200CA30E100E0010A30DE005B08C7
:100650000319DC0A83145730840083135A08E70017
:100660005908E6005808E5005708E4006308EB0065
:100670006208EA006108E9006008E800732278086F
:10068000F708031D562B5B0A5E020319562B5C0804
:100690000319582B0F395E020319502B0318882BAE
:1006A000DC1B882B5C1B582B2030842B2030DC0576
:1006B000DC1E662BDC125B08031DDC037708DC0004
:1006C0002D30E400FC215C08F700DC015B085E02D1
:1006D000031D742B7708DC002E30E400FC215C083D
:1006E000F7002030DC0500303030DC1E842BDC12BB
:1006F0005B08031DDC037708DC002D30E400FC21DF
:100700005C08F700DC013030F7077708E400FC21D3
:1007100083106308E7006208E6006108E5006008EE
:10072000E400EB01EA01E9010A30E80073227A08EB
:10073000E3007908E2007808E1007708E000DE0BCA
:100740002A2B08000B08D7008B13831603178C176E
:100750000C140000000083120C087F390319EB2BE6
:100760000313D80003170D080313D90003170F084C
:100770000313DA0058080C1EBB2B99005908031705
:100780008D0003135A0803178F0083168C170C145F
:100790000000000083120C0D0E0D7F390319EB2BA6
:1007A0000313D80003170D080313D90003170F080C
:1007B0000313DA0058080C1EDB2B990059080317A5
:1007C0008D0003135A0803178F008D0A03198F0A2F
:1007D0000313A52B03170313D71B8B17080004085B
:1007E000DC005B08DE0003190E2C5A08E7005908EC
:1007F000E6005808E5005708E400EB01EA01203064
:10080000E9008230E80003217A08DA007908D9008B
:100810007808D8007708D700DE0BF52B5A08E700D8
:100820005908E6005808E5005708E4006408B63C9B
:10083000E400FA016508E800E5170310E50CE60C92
:10084000E70CFA0CF90CF80CF70CE40B1D2CE81F64
:10085000342CF709F809F909FA09F70A0319F80A13
:100860000319F90A0319FA0A7A08DA007908D90093
:100870007808D8007708D700DA1F4B2CDC03DC1689
:10088000D709D809D909DA09D70A0319D80A0319E7
:10089000D90A0319DA0A3B30E3009A30E200CA3081
:1008A000E100E0010A30DE005B080319DC0A831472
:1008B0005730840083135A08E7005908E6005808A7
:1008C000E5005708E4006308EB006208EA006108ED
:1008D000E9006008E80073227808F708031D832CFC
:1008E0005B0A5E020319832C5C080319852C0F39FF
:1008F0005E0203197D2C0318B92CDC1BB92C5C1B80
:10090000852C2030B42C2030DC05DC1E942CDC122D
:100910005B08031DDC037708DC002D300C1E8E2CD9
:1009200099005C08F700DC015B085E02031DA32C44
:100930007708DC002E300C1E9B2C99005C08F70019
:100940002030DC0500303030DC1EB42CDC125B08BB
:10095000031DDC037708DC002D300C1EAD2C990044
:100960005C08F700DC013030F70777080C1EB62C66
:10097000990083106308E7006208E6006108E5005B
:100980006008E400EB01EA01E9010A30E8007322A3
:100990007A08E3007908E2007808E1007708E000CF
:1009A000DE0B572C08000130E500E600D521403071
:1009B00003178D0000308F00031328220130E5005B
:1009C0000230E600D521483003178D0000308F003B
:1009D00003100A300313D7000B08D8008B138316BB
:1009E00003178C170C140000000003181E2D83122F
:1009F0000C087F390313D90003170D080313DA001D
:100A000003170F080313DB005908E400FC215A0800
:100A100003178D0003135B0803178F0083168C17D1
:100A20000C140000000083120313D70B182D1B2D8C
:100A3000831603171E2D3D2D8316031783120C0DED
:100A40000E0D7F390313D90003170D080313DA00C5
:100A500003170F080313DB005908E400FC215A08B0
:100A600003178D0003135B0803178F008D0A03190A
:100A70008F0A03100313D70BEF2CD81B8B170230F0
:100A800084003808DA003708D9003608D80035085D
:100A9000D700DB01C2223108E400FC212030E40051
:100AA000FC21523003178D0000308F000313A22366
:100AB000733003178D0000308F000313A22394308E
:100AC00003178D0000308F00031010300313D70080
:100AD0000B08D8008B13831603178C170C14000017
:100AE000000003189B2D83120C087F390313D900D3
:100AF00003170D080313DA0003170F080313DB00B5
:100B000059080C1E812D99005A0803178D000313F4
:100B10005B0803178F0083168C170C14000000006D
:100B200083120313D70B952D982D831603179B2D36
:100B3000BB2D8316031783120C0D0E0D7F39031383
:100B4000D90003170D080313DA0003170F08031366
:100B5000DB0059080C1EAA2D99005A0803178D00B6
:100B600003135B0803178F008D0A03198F0A031004
:100B70000313D70B6B2DD81B8B170230840038085A
:100B8000DA003708D9003608D8003508D700DB016D
:100B9000EF230A300C1ECA2D99000A300C1ECE2DF0
:100BA00099000D300C1ED22D9900A13003178D0035
:100BB00000308F0003100C300313D7000B08D8004F
:100BC0008B13831603178C170C14000000000318F6
:100BD000112E83120C087F390313D90003170D0857
:100BE0000313DA0003170F080313DB0059080C1E68
:100BF000F72D99005A0803178D0003135B0803179C
:100C00008F0083168C170C1400000000831203134E
:100C1000D70B0B2E0E2E83160317112E312E831693
:100C2000031783120C0D0E0D7F390313D900031720
:100C30000D080313DA0003170F080313DB0059082C
:100C40000C1E202E99005A0803178D0003135B0811
:100C500003178F008D0A03198F0A03100313D70B94
:100C6000E12DD81B8B17023084003808DA003708D2
:100C7000D9003608D8003508D700DB01EF23203033
:100C80000C1E402E990020300C1E442E9900310875
:100C90000C1E482E99000A300C1E4C2E99000A306A
:100CA0000C1E502E99000D300C1E542E9900AE30A3
:100CB00003178D0000308F000313A22308002E308D
:100CC000840083138403840A8C1E642E1A08800017
:100CD0000D300002031D632E8001D8012E30D70095
:100CE000DC01DA010A30DB00D90157085804031D82
:100CF0007C2E0030F8006D2F5C08DC0A570784005A
:100D00008313581883170008DD005D082D3C031D70
:100D1000952E0130DA005C08DC0A57078400831343
:100D2000581883170008DD00A22E5D082B3C031D18
:100D3000A22E5C08DC0A5707840083135818831717
:100D40000008DD005D082F3C0318632F5D08393C67
:100D5000031C632F5D08303C031DCE2E5C08570733
:100D600084008313581883170008783C0319C22E97
:100D70005C08570784008313581883170008583CF1
:100D8000031DCE2E1030DB00DC0A5C08DC0A57079E
:100D900084008313581883170008DD005B080A3CA1
:100DA000031D112F5D082F3C0318102F5D08393CDF
:100DB000031C102F0A30DE005908DF00F701F8018C
:100DC0005E0803105F18F707F70CF80CDF18F70739
:100DD000F70CF80C5F19F707F70CF80CDF19F70799
:100DE000F70CF80C5F1AF707F70CF80CDF1AF70787
:100DF000F70CF80C5F1BF707F70CF80CDF1BF70775
:100E0000F70CF80C30305D027807D9005C08DC0A7A
:100E1000570784008313581883170008DD00D22E6B
:100E2000632F5B08103C031D632F5D08603C0318B3
:100E3000202F5D087A3C031C202F5D08DF39212F0D
:100E40005D08DD005D082F3C03182A2F5D08393C42
:100E50000318322F5D08403C0318632F5D08463CA1
:100E6000031C632F5D082F3C0318432F5D08393C9A
:100E7000031C432F590EDE00F030DE0530305D02DA
:100E80005E07D9004C2F590EDE00F030DE054130F0
:100E90005D020A3E5E07D9005C08DC0A5707840041
:100EA0008313581883170008DD005D08603C0318A1
:100EB000602F5D087A3C031C602F5D08DF39612FCD
:100EC0005D08DD00222F5A0B6B2F5B080A3C031DC7
:100ED0006B2FD909D90A5908F800D8017808D7002A
:100EE000D71BD8038E30F7005808F8005708F900D0
:100EF000FA01D81F802FF809F909F90A0319F80A2D
:100F0000F808031D8D2F7908F800F9010830F70261
:100F1000F808031D8D2FF701962F0310F81B942F4F
:100F2000F90DF80DF7038D2FD81FF8137A08B800C4
:100F30007908B7007808B6007708B500DA01D9015A
:100F40004830D8008530D7003808DE003708DD008B
:100F50003608DC003508DB00C420031CB62FB801BE
:100F6000B7014830B6008530B500C92F3808DA001F
:100F70003708D9003608D8003508D700DE01DD0172
:100F8000DC01DB01C420031CC92FB801B701B60185
:100F9000B5013808E7003708E6003608E5003508EF
:100FA000E400EB01EA012030E9008230E80003218F
:100FB0007A08BC007908BB007808BA007708B90045
:100FC000D324B2018C128A110A122128CD37F437AA
:0C0FD0007210D030F230E4372010200006
:101000000F30831608058800081088100811831215
:10101000881008110810A7018B1BA7178B130F301E
:10102000E5008A11E7218A15A71B8B170130BD0047
:101030003D08033C031C36280330EC006C0EF039ED
:10104000F7000F30080577048800000008142828EE
:101050000810A7018B1BA7178B130530E5008A1119
:10106000E7218A15A71B8B17BD0A18280230EC0050
:101070006C0EF039F7000F30080577048800000087
:10108000081442280810A7018B1BA7178B130530E3
:10109000E5008A11E7218A15A71B8B17BD013D08C2
:1010A000033C031C66283D088A1138208A15BE00BF
:1010B000A7018B1BA7178B13E9013E08EA008A11D1
:1010C00078218A15A71B8B17BD0A4F288A150A128B
:1010D000AD288E30F7003D08F7023E08F9003F08C2
:1010E000F800F917F708031980280310F908031D01
:1010F0007C28F80803198028F90CF80CF70B7528E0
:10110000BE1F8728F809F909F80A0319F90A8A1590
:101110000A12C22803081F39830019308316990068
:10112000A63098009030831298002530B100B201AB
:1011300083161F149F141F159F1107309C008313E3
:101140008312A801A9018316011783120B168316B7
:101150008C16C03083128B040028A7018B1BA717A5
:101160008B138A11D3248A15A71B8B17B208031D72
:1011700012293C08C0003B08BF003A08BE003908ED
:10118000BD0069287908B4007808B300831686107A
:10119000831286143408BD00BD0ABD030319DC2880
:1011A000A7018B1BA7178B13FF30E5008A11E721DE
:1011B0008A15A71B8B17CD28A7018B1BA7178B138D
:1011C0003308E5008A11E7218A15A71B8B178316C0
:1011D0008610831286103308E83CBD000330BE0041
:1011E0003408031C340FBE023E08BF00BF0ABF0311
:1011F00003190629A7018B1BA7178B13FF30E500E6
:101200008A11E7218A15A71B8B17F728A7018B1BCB
:10121000A7178B133D08E5008A11E7218A15A71B44
:101220008B172E29A7018B1BA7178B130130E50005
:101230000230E6008A11D5218A15A71B8B17E630EC
:1012400003178D0007308F000313A7018B1BA7170F
:101250008B138A1128228A15A71B8B17B6286300C7
:02400E00713F00
:00000001FF
;PIC16F877A
;CRC=15A7  CREATED="24-dic.-23 09:31"
