:1000000008308A0000280000FF00030E8301A100D1
:100010000A08A0008A010408A2007708A300780853
:10002000A4007908A5007A08A600831383120B1E8A
:100030001B288B1832288C308400801E21288C1AB3
:100040003528220884002308F7002408F800250832
:10005000F9002608FA0020088A00210E8300FF0E0E
:100060007F0E09008A110A12AE288A110A12D02DB9
:100070000A108A100A11820728340C34013406341D
:1000800020173A10CD37F43772104322201D2E006E
:10009000D6326C17BD1233173033A53120000C1047
:1000A0002E1DA0216F3774396F3620326510D6327D
:1000B000EC37E334E4306410E432A03A6E10CD370C
:1000C000F4377210E432A0214410CD32E4346137A9
:1000D000F43220266110D021201D2E058A06000052
:1000E0002E1DA024EE33F232F33220366110D632C8
:1000F000EC37E334E4306410C432F332613261101F
:10010000E4322018A030A0183018A0342028F23291
:10011000F3346F3765104537F43272103A170A0519
:100120000D00D632EC37E334E43064103D10A519ED
:100130002E18E61263058A06000049376739E5394B
:100140006510EC30202B6536EF3169326132203298
:100150006536A0266F3A6F39A01E2000B20A8B10B8
:100160008A110A1221285808DF005C08DF06DF1F09
:10017000BE2803110310D81B0314F1285808DF0010
:100180005B08E0005708E0020319CC28DF1FF128C4
:100190000308013A8300F1285C08E0005808E002F7
:1001A0000319D828DF1FF1280308013A8300F1283A
:1001B0005D08E0005908E0020319E428DF1FF12878
:1001C0000308013A8300F1285E08E0005A08E002C3
:1001D0000319F028DF1FF1280308013A8300F128F2
:1001E00003100800640803196229EC006808031969
:1001F0006229EC07031803297F30EC02031C6229F3
:100200000319622907298130EC07031862296C0859
:10021000F700F801F901FA016508F000F017660827
:10022000EF006708EE001830EC00ED016E1C30297D
:100230006B08FA07031C2229F90A031D2229F80A70
:100240000319ED176A08F907031C2929F80A03198D
:10025000ED176908E600E6176608F8070318ED17BA
:10026000ED0DF80CF90CFA0CF00CEF0CEE0C031081
:10027000EC0B15290130F70703186229F81B4729F1
:10028000F00DFA0DF90DF80DF70303196229F01FAF
:100290005829FA0A031D5829F90A031D5829F80A92
:1002A000031D5829F80CF90CFA0CF70A03196229F6
:1002B0006508ED006908ED06ED1F6029F81766294D
:1002C000F8136629F701F801F901FA01080083160D
:1002D000081088100811831288100F308316080543
:1002E000F038880083120815000008140000080880
:1002F000F700080E0F39F8007808EC00081000002D
:10030000081400000808F700080E0F39F8007808F4
:10031000EB0008100F3083160805880083126C0E5E
:10032000F700F030F70577086B04F8007808EB0069
:10033000EB1B6D29691C88106918881400000811CE
:10034000000008106A0EEB000F30EB056B08EC00A4
:100350006C0EF039F7000F300805770488000000B4
:100360000814B22908106A080F39EB006B08EC007A
:100370006C0EF039F7000F30080577048800000094
:100380000814C22908100800660BC729CA29403082
:10039000E700CB29E70101306502E70767088038ED
:1003A000E800E9016808EA00672108006530840078
:1003B000831300080319EA290130F800F701F70B4D
:1003C000DF29F80BDE294A30F700F70BE529E82989
:1003D000800BDC2908006408073A0319F9290B3A55
:1003E0000319FE29063A0319062A023A03190C2AB0
:1003F000112A0130E500E600C421162AE901013086
:10040000EA0067210230E500D621162A0130E50016
:100410000230E600C421162AE9011030EA00672103
:10042000162A0130E9006408EA00672108000B0879
:10043000D7008B13831603178C170C1400000000D1
:1004400083120C087F3903195E2A0313D80003179F
:100450000D080313D90003170F080313DA00580817
:10046000E400EB21590803178D0003135A08031702
:100470008F0083168C170C140000000083120C0DE3
:100480000E0D7F3903195E2A0313D80003170D08D8
:100490000313D90003170F080313DA005808E40008
:1004A000EB21590803178D0003135A0803178F0017
:1004B0008D0A03198F0A03131A2A03170313D71B74
:1004C0008B1708008318672A6C3084008313F701A8
:1004D000F801F901FA01EC01ED01EE01EF016B0801
:1004E0006A04690468040319A52A2030F000031087
:1004F000E40DE50DE60DE70DEC0DED0DEE0DEF0D48
:100500006B086F02031D8E2A6A086E02031D8E2A75
:1005100069086D02031D8E2A68086C02031C9F2A5D
:100520006808EC026908031C690FED026A08031CE5
:100530006A0FEE026B08031C6B0FEF020314F70D3A
:10054000F80DF90DFA0DF00B772A6C088000840A7B
:100550006D088000840A6E088000840A6F0880009D
:1005600008000408DC005B08DE000319D02A5A08E2
:10057000E7005908E6005808E5005708E400EB01D9
:10058000EA012030E9008230E800F2207A08DA003F
:100590007908D9007808D8007708D700DE0BB72A89
:1005A0005A08E7005908E6005808E5005708E40033
:1005B0006408B63CE400FA016508E800E51703109A
:1005C000E50CE60CE70CFA0CF90CF80CF70CE40B54
:1005D000DF2AE81FF62AF709F809F909FA09F70AE4
:1005E0000319F80A0319F90A0319FA0A7A08DA0052
:1005F0007908D9007808D8007708D700DA1F0D2BC2
:10060000DC03DC16D709D809D909DA09D70A031996
:10061000D80A0319D90A0319DA0A3B30E3009A30E1
:10062000E200CA30E100E0010A30DE005B08031995
:10063000DC0A83145730840083135A08E7005908F2
:10064000E6005808E5005708E4006308EB0062087C
:10065000EA006108E9006008E80062227808F7080B
:10066000031D452B5B0A5E020319452B5C08031929
:10067000472B0F395E0203193F2B0318772BDC1B26
:10068000772B5C1B472B2030732B2030DC05DC1EC6
:10069000552BDC125B08031DDC037708DC002D30D2
:1006A000E400EB215C08F700DC015B085E02031D3F
:1006B000632B7708DC002E30E400EB215C08F700A8
:1006C0002030DC0500303030DC1E732BDC125B0880
:1006D000031DDC037708DC002D30E400EB215C080F
:1006E000F700DC013030F7077708E400EB218310D6
:1006F0006308E7006208E6006108E5006008E400BE
:10070000EB01EA01E9010A30E80062227A08E3001D
:100710007908E2007808E1007708E000DE0B192B89
:1007200008000B08D7008B13831603178C170C14C3
:100730000000000083120C087F390319DA2B031321
:10074000D80003170D080313D90003170F0803136C
:10075000DA0058080C1EAA2B9900590803178D00BF
:1007600003135A0803178F0083168C170C1400000C
:10077000000083120C0D0E0D7F390319DA2B0313C1
:10078000D80003170D080313D90003170F0803132C
:10079000DA0058080C1ECA2B9900590803178D005F
:1007A00003135A0803178F008D0A03198F0A0313C6
:1007B000942B03170313D71B8B1708000408DC00C6
:1007C0005B08DE000319FD2B5A08E7005908E60014
:1007D0005808E5005708E400EB01EA012030E90081
:1007E0008230E800F2207A08DA007908D900780827
:1007F000D8007708D700DE0BE42B5A08E700590829
:10080000E6005808E5005708E4006408B63CE40038
:10081000FA016508E800E5170310E50CE60CE70CA3
:10082000FA0CF90CF80CF70CE40B0C2CE81F232C39
:10083000F709F809F909FA09F70A0319F80A031977
:10084000F90A0319FA0A7A08DA007908D90078084F
:10085000D8007708D700DA1F3A2CDC03DC16D7095A
:10086000D809D909DA09D70A0319D80A0319D90A04
:100870000319DA0A3B30E3009A30E200CA30E100A3
:10088000E0010A30DE005B080319DC0A83145730EC
:10089000840083135A08E7005908E6005808E50069
:1008A0005708E4006308EB006208EA006108E90009
:1008B0006008E80062227808F708031D722C5B0AC2
:1008C0005E020319722C5C080319742C0F395E0246
:1008D00003196C2C0318A82CDC1BA82C5C1B742C93
:1008E0002030A32C2030DC05DC1E832CDC125B08BE
:1008F000031DDC037708DC002D300C1E7D2C9900D5
:100900005C08F700DC015B085E02031D922C77088F
:10091000DC002E300C1E8A2C99005C08F700203079
:10092000DC0500303030DC1EA32CDC125B08031D1C
:10093000DC037708DC002D300C1E9C2C99005C0831
:10094000F700DC013030F70777080C1EA52C990062
:1009500083106308E7006208E6006108E5006008AC
:10096000E400EB01EA01E9010A30E80062227A08BA
:10097000E3007908E2007808E1007708E000DE0B88
:10098000462C08000130E500E600C4214030031782
:100990008D0000308F00031317220130E500023074
:1009A000E600C421483003178D0000308F0003108B
:1009B00005300313D7000B08D8008B1383160317D9
:1009C0008C170C140000000003180D2D83120C0866
:1009D0007F390313D90003170D080313DA00031737
:1009E0000F080313DB005908E400EB215A08031732
:1009F0008D0003135B0803178F0083168C170C14EC
:100A00000000000083120313D70B072D0A2D831655
:100A100003170D2D2C2D8316031783120C0D0E0DAD
:100A20007F390313D90003170D080313DA000317E6
:100A30000F080313DB005908E400EB215A080317E1
:100A40008D0003135B0803178F008D0A03198F0AAB
:100A500003100313D70BDE2CD81B8B170230840036
:100A60003808DA003708D9003608D8003508D7002A
:100A7000DB01B1223108E400EB212030E400EB215E
:100A80004F3003178D0000308F0003139123703017
:100A900003178D0000308F0003139123913003174B
:100AA0008D0000308F0003100C300313D7000B08AB
:100AB000D8008B13831603178C170C14000000004A
:100AC00003188A2D83120C087F390313D9000317EA
:100AD0000D080313DA0003170F080313DB0059088E
:100AE0000C1E702D99005A0803178D0003135B0824
:100AF00003178F0083168C170C140000000083125C
:100B00000313D70B842D872D831603178A2DAA2D47
:100B10008316031783120C0D0E0D7F390313D900B2
:100B200003170D080313DA0003170F080313DB0084
:100B300059080C1E992D99005A0803178D000313AC
:100B40005B0803178F008D0A03198F0A0310031324
:100B5000D70B5A2DD81B8B17023084003808DA00C7
:100B60003708D9003608D8003508D700DB01DE2366
:100B700031080C1EB92D99000A300C1EBD2D9900AC
:100B80000A300C1EC12D99000D300C1EC52D990088
:100B90009D3003178D0000308F0003139123080050
:100BA0002E30840083138403840A8C1ED52D1A08EA
:100BB00080000D300002031DD42D8001D8012E309D
:100BC000D700DC01DA010A30DB00D90157085804EC
:100BD000031DED2D0030F800DE2E5C08DC0A5707FF
:100BE00084008313581883170008DD005D082D3C2E
:100BF000031D062E0130DA005C08DC0A570784006A
:100C00008313581883170008DD00132E5D082B3C52
:100C1000031D132E5C08DC0A570784008313581841
:100C200083170008DD005D082F3C0318D42E5D08F3
:100C3000393C031CD42E5D08303C031D3F2E5C085C
:100C4000570784008313581883170008783C03194A
:100C5000332E5C0857078400831358188317000845
:100C6000583C031D3F2E1030DB00DC0A5C08DC0A18
:100C7000570784008313581883170008DD005B08AA
:100C80000A3C031D822E5D082F3C0318812E5D084F
:100C9000393C031C812E0A30DE005908DF00F701C1
:100CA000F8015E0803105F18F707F70CF80CDF185F
:100CB000F707F70CF80C5F19F707F70CF80CDF19BA
:100CC000F707F70CF80C5F1AF707F70CF80CDF1AA8
:100CD000F707F70CF80C5F1BF707F70CF80CDF1B96
:100CE000F707F70CF80C30305D027807D9005C0884
:100CF000DC0A570784008313581883170008DD00A7
:100D0000432ED42E5B08103C031DD42E5D08603C9E
:100D10000318912E5D087A3C031C912E5D08DF3983
:100D2000922E5D08DD005D082F3C03189B2E5D08A8
:100D3000393C0318A32E5D08403C0318D42E5D08EF
:100D4000463C031CD42E5D082F3C0318B42E5D08CE
:100D5000393C031CB42E590EDE00F030DE05303075
:100D60005D025E07D900BD2E590EDE00F030DE05B3
:100D700041305D020A3E5E07D9005C08DC0A570775
:100D800084008313581883170008DD005D08603C59
:100D90000318D12E5D087A3C031CD12E5D08DF3983
:100DA000D22E5D08DD00932E5A0BDC2E5B080A3C28
:100DB000031DDC2ED909D90A5908F800D801780892
:100DC000D700D71BD8038E30F7005808F800570813
:100DD000F900FA01D81FF12EF809F909F90A0319E7
:100DE000F80AF808031DFE2E7908F800F90108300A
:100DF000F702F808031DFE2EF701072F0310F81B5A
:100E0000052FF90DF80DF703FE2ED81FF8137A08F9
:100E1000B8007908B7007808B6007708B500DA019D
:100E2000D9014830D8008530D7003808DE003708AF
:100E3000DD003608DC003508DB00B320031C272F5B
:100E4000B801B7014830B6008530B5003A2F3808F0
:100E5000DA003708D9003608D8003508D700DE0197
:100E6000DD01DC01DB01B320031C3A2FB801B7011F
:100E7000B601B5013808E7003708E6003608E50096
:100E80003508E400EB01EA012030E9008230E80097
:100E9000F2207A08BC007908BB007808BA0077080D
:100EA000B900C224B2018C128A110A122128CD374E
:100EB000F4377210D030F230E437201020000F30B9
:100EC00083160805880008108810081183128810FE
:100ED00008110810A7018B1BA7178B130F30E50013
:100EE000D621A71B8B170130BD003D08033C031C16
:100EF000912F0330EC006C0EF039F7000F3008052D
:100F00007704880000000814852F0810A7018B1BA8
:100F1000A7178B130530E500D621A71B8B17BD0A39
:100F2000752F0230EC006C0EF039F7000F30080519
:100F300077048800000008149D2F0810A7018B1B60
:100F4000A7178B130530E500D621A71B8B17BD0112
:100F50003D08033C031CBB2F3D083820BE00A70101
:100F60008B1BA7178B13E9013E08EA006721A71B1B
:100F70008B17BD0AA82F8A150A1224288E30F70075
:100F80003D08F7023E08F9003F08F800F917F70896
:100F90000319D52F0310F908031DD12FF8080319E1
:100FA000D52FF90CF80CF70BCA2FBE1FDC2FF80950
:0E0FB000F909F80A0319F90A8A150A123B28F2
:1010000003081F398300193083169900A630980011
:101010009030831298002530B100B20183161F145E
:101020009F141F159F1107309C0083138312A80182
:10103000A9018316011783120B1683168C16C03074
:1010400083128B048A115F2F8A15A7018B1BA717A8
:101050008B138A11C2248A15A71B8B17B208031D94
:101060008C283C08C0003B08BF003A08BE00390885
:10107000BD008A11BE2F8A157908B4007808B30024
:1010800083168610831286143408BD00BD0ABD0382
:1010900003195628A7018B1BA7178B13FF30E500F8
:1010A0008A11D6218A15A71B8B174728A7018B1BEE
:1010B000A7178B133308E5008A11D6218A15A71BC1
:1010C0008B1783168610831286103308E83CBD0008
:1010D0000330BE003408031C340FBE023E08BF00BC
:1010E000BF0ABF0303198028A7018B1BA7178B1307
:1010F000FF30E5008A11D6218A15A71B8B177128AE
:10110000A7018B1BA7178B133D08E5008A11D62179
:101110008A15A71B8B17A828A7018B1BA7178B1352
:101120000130E5000230E6008A11C4218A15A71BB0
:101130008B17573003178D0007308F000313A7015B
:101140008B1BA7178B138A1117228A15A71B8B17C6
:041150002E286300E2
:02400E00713F00
:00000001FF
;PIC16F877A
;CRC=3B15  CREATED="04-ene.-24 10:15"
